:100000000C945D000C9485000C9485000C94850084
:100010000C9485000C9485000C9485000C9485004C
:100020000C9485000C9485000C9485000C9442017E
:100030000C9485000C9485000C9485000C9485002C
:100040000C94F8000C9485000C9485000C948500A9
:100050000C9485000C9485000C9485000C9485000C
:100060000C9485000C9485000000000024002700FB
:100070002A0000000000250028002B0004040404CE
:100080000404040402020202020203030303030342
:10009000010204081020408001020408102001021F
:1000A00004081020000000080002010000030407FB
:1000B0000000000000000000770311241FBECFEFF6
:1000C000D8E0DEBFCDBF11E0A0E0B1E0E2E1F8E0B2
:1000D00002C005900D92A430B107D9F721E0A4E049
:1000E000B1E001C01D92A633B207E1F710E0CDE503
:1000F000D0E004C02197FE010E940104CC35D10755
:10010000C9F70E94FE010C9407040C94000090E0D3
:10011000FC01EC55FF4F2491FC01E057FF4F349157
:10012000FC01E458FF4FE491EE23C9F0222339F09B
:10013000233001F1A8F4213019F1223029F1F0E047
:10014000EE0FFF1FEE58FF4FA591B4918FB7F894B3
:10015000EC91611126C030953E233C938FBF0895EA
:100160002730A9F02830C9F0243049F78091800069
:100170008F7D03C0809180008F7780938000DFCFD8
:1001800084B58F7784BDDBCF84B58F7DFBCF809125
:10019000B0008F778093B000D2CF8091B0008F7D78
:1001A000F9CF3E2BDACF3FB7F8948091320190918E
:1001B0003301A0913401B091350126B5A89B05C04B
:1001C0002F3F19F00196A11DB11D3FBFBA2FA92FD6
:1001D000982F8827BC01CD01620F711D811D911DD3
:1001E00042E0660F771F881F991F4A95D1F708953F
:1001F0001F920F920FB60F9211242F933F938F935C
:100200009F93AF93BF9380912E0190912F01A09166
:100210003001B091310130912D0123E0230F2D37B2
:1002200058F50196A11DB11D20932D0180932E013B
:1002300090932F01A0933001B0933101809132014E
:1002400090913301A0913401B09135010196A11D27
:10025000B11D8093320190933301A0933401B09388
:100260003501BF91AF919F918F913F912F910F9049
:100270000FBE0F901F90189526E8230F0296A11D20
:10028000B11DD2CF1F920F920FB60F9211242F9350
:100290003F934F935F936F937F938F939F93AF930E
:1002A000BF93CF93DF93EF93FF9380910501C091AC
:1002B0000401D0E087FF24C01092850010928400D2
:1002C000809105018F5F8093050180910501082EC3
:1002D000000C990B8C179D0724F4809105018C303C
:1002E000C4F18091840090918500049680349C49EB
:1002F00008F47AC08091840090918500049676C0BD
:1003000080910501082E000C990B8C179D07C4F6EF
:10031000E09105018E2FEE0F990BFC01EE0FFF1FF0
:10032000E80FF91FEA5FFE4F808186FFC9CFE09199
:1003300005018E2FEE0F990BFC01EE0FFF1FE80F4A
:10034000F91FEA5FFE4F808160E08F730E94870093
:10035000B7CF2091840030918500E09105018E2F68
:10036000EE0F990BFC01EE0FFF1FE80FF91FEA5F7C
:10037000FE4F81819281820F931F90938900809319
:100380008800E09105018E2FEE0F990BFC01EE0F16
:10039000FF1FE80FF91FEA5FFE4F808186FF11C043
:1003A000E09105018E2FEE0F990BFC01EE0FFF1F60
:1003B000E80FF91FEA5FFE4F808161E08F730E94B2
:1003C0008700FF91EF91DF91CF91BF91AF919F9106
:1003D0008F917F916F915F914F913F912F910F90EE
:1003E0000FBE0F901F90189580E49CE990938900B0
:1003F000809388008FEF80930501E3CF789484B5D4
:10040000826084BD84B5816084BD85B5826085BD10
:1004100085B5816085BD80916E00816080936E009E
:100420001092810080918100826080938100809190
:100430008100816080938100809180008160809341
:1004400080008091B10084608093B1008091B00001
:1004500081608093B00080917A00846080937A00FC
:1004600080917A00826080937A0080917A00816026
:1004700080937A0080917A00806880937A0010924D
:10048000C10080912A018C3008F068C0E9E9F0E0F1
:100490002491E5E8F0E08491882399F090E0880FBA
:1004A000991FFC01E859FF4FA591B491FC01EE584A
:1004B000FF4F859194918FB7F894EC91E22BEC93D8
:1004C0008FBF80912A01282F30E0F901EE0FFF1F26
:1004D000E20FF31FEA5FFE4F9081907C996090835A
:1004E00010922B0110922C012CE0622F0E94F50338
:1004F000829FB001112430E020E0AB01420F531F76
:10050000FA01EE0FFF1FE40FF51FEA5FFE4F908127
:1005100096FD16C02F5F3F4F2C30310571F78111CA
:100520000FC01092800082E08093810010928500BD
:1005300010928400B19A80916F00826080936F0066
:10054000E0912A018E2F90E0FC01EE0FFF1FE80FD3
:10055000F91FEA5FFE4F80818064808308E810E025
:10056000C8E5D2E0A4EB4A2E512C612C712CB0E0EE
:100570002B2EB0E03B2EA0910101B0910201A032E0
:1005800022E0B207BCF520912B016801C21AD10804
:1005900027FDD394CC0CDD1CCC0CDD1C0D2C000CE9
:1005A000EE08FF0820912C01CE01821B910927FD46
:1005B00093959C01220F331F220F331F032E000C33
:1005C000440B550B2C193D094E095F09A53BB1059C
:1005D00014F0A4EBB0E0B7FF02C0B0E0A0E00E94CE
:1005E000BC03A30192010E949203C20ED31EE41E1B
:1005F000F51ED601E0912A01EC3088F520912B01FF
:10060000C801821B910927FD93959C01220F331F7E
:10061000220F331FA217B30784F020912C01CE01C3
:10062000821B910927FD93959C01220F331F220FF6
:10063000331FA217B3070CF49D0122503109220F7A
:10064000331F4FB7F8948E2F90E0FC01EE0FFF1F81
:10065000E80FF91FEA5FFE4F328321834FBF0E94EC
:10066000D3004B015C0182E3C82ED12CE12CF12C8C
:100670000E94D300681979098A099B09683E734072
:1006800081059105A8F391E0C91AD108E108F108A4
:1006900028EE820E23E0921EA11CB11CC114D104CD
:1006A000E104F10429F78091010190910201209168
:1006B0000001222389F002969093020180930101A8
:1006C0008639910514F0109200012114310409F4C7
:1006D00052CF0E9400004FCF029790930201809367
:1006E00001014F9794F781E080930001EECF809154
:1006F00004018C3098F491E0980F9093040180935A
:100700002A0190E0FC01EE0FFF1FE80FF91FEA5FDE
:10071000FE4F88EB9BE09283818308958FEF809357
:100720002A010895052E97FB1EF400940E94A90348
:1007300057FD07D00E94C40307FC03D04EF40C946D
:10074000A90350954095309521953F4F4F4F5F4FEE
:10075000089590958095709561957F4F8F4F9F4F2D
:1007600008950E94E603A59F900DB49F900DA49F4D
:10077000800D911D11240895B7FF0C94B1030E94C0
:10078000B103821B930B0895A1E21A2EAA1BBB1B77
:10079000FD010DC0AA1FBB1FEE1FFF1FA217B3074D
:1007A000E407F50720F0A21BB30BE40BF50B661F63
:1007B000771F881F991F1A9469F760957095809527
:1007C00090959B01AC01BD01CF010895A29FB0019E
:1007D000B39FC001A39F700D811D1124911DB29F75
:1007E000700D811D1124911D0895991B79E004C09D
:1007F000991F961708F0961B881F7A95C9F7809560
:100800000895EE0FFF1F0590F491E02D0994F894E0
:02081000FFCF18
:04081200011E0000C3
:00000001FF
