:100000000C9463000C948B000C948B000C94840370
:100010000C9484030C9484030C948B000C948B003C
:100020000C948B000C948B000C948B000C948B0024
:100030000C948B000C948B000C948B000C948B0014
:100040000C94E2020C948B000C9452030C942C033D
:100050000C948B000C948B000C948B000C948B00F4
:100060000C948B000C948B000000000024002700EF
:100070002A0000000008000201000003040700003D
:1000800000000000000000000000230026002900FE
:1000900000000000250028002B00040404040404D0
:1000A0000404020202020202030303030303010227
:1000B00004081020408001020408102001020408F6
:1000C00010202A04580611241FBECFEFD8E0DEBF4F
:1000D000CDBF11E0A0E0B1E0EEE0FDE002C0059090
:1000E0000D92A633B107D9F722E0A6E3B1E001C033
:1000F0001D92AF33B207E1F710E0C2E6D0E004C0D2
:100100002197FE010E947406C136D107C9F70E94EB
:10011000D5040C947A060C940000833081F028F406
:10012000813099F08230A9F008958730A9F08830A5
:10013000C9F08430B1F4809180008F7D03C080913C
:1001400080008F7780938000089584B58F7784BD79
:10015000089584B58F7DFBCF8091B0008F77809319
:10016000B00008958091B0008F7DF9CFCF93DF93D9
:1001700090E0FC01E255FF4F249186569F4FFC0111
:1001800084918823C9F090E0880F991FFC01E859F9
:10019000FF4FA591B491FC01E057FF4FC591D49159
:1001A00061110DC09FB7F8948C91209582238C9398
:1001B0008881282328839FBFDF91CF9108956230E3
:1001C00051F49FB7F8943C91822F809583238C93B0
:1001D000E8812E2BEFCF8FB7F894EC912E2B2C9338
:1001E0008FBFEACF3FB7F89480917F019091800153
:1001F000A0918101B091820126B5A89B05C02F3F37
:1002000019F00196A11DB11D3FBFBA2FA92F982F3C
:100210008827BC01CD01620F711D811D911D42E037
:10022000660F771F881F991F4A95D1F70895AF92DF
:10023000BF92CF92DF92EF92FF920F931F93CF93D3
:10024000DF936C017B018B01040F151FEB015E0135
:10025000AE18BF08C017D10759F06991D601ED91CA
:10026000FC910190F081E02DC6010995892B79F769
:10027000C501DF91CF911F910F91FF90EF90DF901B
:10028000CF90BF90AF900895FC01538D448D252FE2
:1002900030E0842F90E0821B930B541710F0CF9620
:1002A000089501970895FC01918D828D981761F052
:1002B000A28DAE0FBF2FB11D5D968C91928D9F5F69
:1002C0009F73928F90E008958FEF9FEF0895FC0148
:1002D000918D828D981731F0828DE80FF11D858DFB
:1002E00090E008958FEF9FEF0895FC01918D228D8E
:1002F000892F90E0805C9F4F821B91098F73992713
:10030000089583E891E00E94750121E0892B09F4AA
:1003100020E0822F089580E090E0892B29F00E9450
:10032000810181110C9400000895FC01A48DA80F97
:10033000B92FB11DA35ABF4F2C91848D90E0019627
:100340008F739927848FA689B7892C93A089B18947
:100350008C91837080648C93938D848D981306C0E8
:100360000288F389E02D80818F7D80830895EF924C
:10037000FF920F931F93CF93DF93EC0181E0888F5F
:100380009B8D8C8D98131AC0E889F989808185FF2F
:1003900015C09FB7F894EE89FF896083E889F989D1
:1003A00080818370806480839FBF81E090E0DF91D3
:1003B000CF911F910F91FF90EF900895F62E0B8D26
:1003C00010E00F5F1F4F0F731127E02E8C8D8E11E1
:1003D0000CC00FB607FCFACFE889F989808185FF48
:1003E000F5CFCE010E949501F1CFEB8DEC0FFD2FE3
:1003F000F11DE35AFF4FF0829FB7F8940B8FEA8903
:10040000FB8980818062CFCFCF93DF93EC01888D11
:100410008823B9F0AA89BB89E889F9898C9185FD7F
:1004200003C0808186FD0DC00FB607FCF7CF8C910D
:1004300085FFF2CF808185FFEDCFCE010E9495012F
:10044000E9CFDF91CF910895209178013091790122
:100450002817390771F490917601809177019817E8
:1004600041F0E0917601F0E0EA5CFE4F808190E09F
:1004700008958FEF9FEF08950895EF92FF920F93E5
:100480001F93CF93DF93DC015C96ED90FC905D971A
:10049000E114F10479F481E090E013969C938E933B
:1004A000129790E080E0DF91CF911F910F91FF9024
:1004B000EF9008955196ED91FC91529750968C9142
:1004C0005097982F90950FB75E962C915E97122FAC
:1004D000127021FD6095F8942081112319F1282BC9
:1004E0002083E7012197F1F728E0462F50E0308183
:1004F00060FF1AC0382B3083E7012197F1F7BA016A
:1005000075956795215089F7112381F080818923A2
:1005100080830FBF5C968D919C910197F1F781E0EC
:1005200090E0C1CF2923DCCF3923E5CF9081892BFF
:10053000EFCF20917801309179012817390761F4C4
:10054000809177012091760190E0805C9F4F821B23
:1005500091098F739927089590E080E00895209184
:1005600078013091790128173907B9F49091760113
:1005700080917701981789F0E0917601F0E0EA5CCC
:10058000FE4F80812091760130E02F5F3F4F2F7327
:1005900033272093760190E008958FEF9FEF089521
:1005A00090E080E00895FB0101900020E9F7319789
:1005B000AF01461B570BDC01ED91FC910280F381EA
:1005C000E02D09941F920F920FB60F9211242F93D2
:1005D0003F938F939F93AF93BF9380917B019091B3
:1005E0007C01A0917D01B0917E0130917A0123E0E0
:1005F000230F2D3758F50196A11DB11D20937A01C7
:1006000080937B0190937C01A0937D01B0937E0148
:1006100080917F0190918001A0918101B091820130
:100620000196A11DB11D80937F0190938001A0933D
:100630008101B0938201BF91AF919F918F913F91C2
:100640002F910F900FBE0F901F90189526E8230F43
:100650000296A11DB11DD2CF1F920F920FB60F921D
:1006600011242F933F934F935F936F937F938F93B7
:100670009F93AF93BF93EF93FF9383E891E00E9422
:100680009501FF91EF91BF91AF919F918F917F91D4
:100690006F915F914F913F912F910F900FBE0F90EF
:1006A0001F9018951F920F920FB60F9211242F933F
:1006B0008F939F93EF93FF93E0919301F0919401B7
:1006C0008081E0919901F0919A0182FD1BC0908197
:1006D00080919C018F5F8F7320919D01821741F063
:1006E000E0919C01F0E0ED57FE4F958F80939C01C7
:1006F000FF91EF919F918F912F910F900FBE0F90CF
:100700001F9018958081F4CF1F920F920FB60F9211
:1007100011242F933F934F935F936F937F938F9306
:100720009F93AF93BF93EF93FF93E0917801F09184
:100730007901309749F0A685B7858585968D91FF1B
:1007400014C09C918923A1F4FF91EF91BF91AF91C7
:100750009F918F917F916F915F914F913F912F91D9
:100760000F900FBE0F901F9018959C91892361F7F1
:10077000A389B4899C918589809589238C938689E6
:1007800097890197F1F7608D718DA685B78555859D
:1007900038E020E0CB010197F1F7822F90E09595AA
:1007A0008795282F4C91452309F02068315091F707
:1007B000868D81FD20958091770190E001968F7361
:1007C000992730917601381799F0A0917701B0E020
:1007D000AA5CBE4F2C9380937701828D938D0197F5
:1007E000F1F7A389B4898C919589892B8C93ACCF2F
:1007F000868D8160868FF1CF1F93CF93DF93282F53
:1008000030E0F901EE58FF4F8491F901E255FF4FB6
:10081000D491F901E656FF4FC491CC23A9F0162FCD
:1008200081110E948D00EC2FF0E0EE0FFF1FE057CA
:10083000FF4FA591B4918FB7F894EC91111108C0B6
:10084000D095DE23DC938FBFDF91CF911F91089568
:10085000DE2BF8CF109286011092850188EE93E08E
:10086000A0E0B0E08093870190938801A093890174
:10087000B0938A0124E031E0309384012093830116
:1008800025EC30E03093900120938F0124EC30E090
:10089000309392012093910120EC30E03093940149
:1008A0002093930121EC30E0309396012093950141
:1008B00022EC30E0309398012093970126EC30E051
:1008C00030939A012093990110929C0110929D01FE
:1008D00010929E0110929F01109223021092220208
:1008E0008093240290932502A0932602B0932702BE
:1008F00086E191E0909321028093200210923702CA
:1009000010923602109239021092380210923B0275
:1009100010923A0210923D0210923C0260913E0207
:100920006E7F6D7F60933E026695617081E06827FF
:100930008BE00E94FC0361E08BE00E94B600E9EBD3
:10094000F0E0E491E0933002E5EAF0E0E491F0E0D9
:10095000EE0FFF1FE057FF4F859194919093320265
:100960008093310260E08AE00E94B60080913E02EE
:1009700081FD04C061E08AE00E94FC038AE080936C
:100980002C02E8EBF0E0E491E0932D02E4EAF0E0E1
:10099000E491F0E0EE0FFF1FEA57FF4F859194912D
:1009A00090932F0280932E020895789484B58260EC
:1009B00084BD84B5816084BD85B5826085BD85B503
:1009C000816085BD80916E00816080936E00109281
:1009D00081008091810082608093810080918100FC
:1009E000816080938100809180008160809380008D
:1009F0008091B10084608093B1008091B0008160EB
:100A00008093B00080917A00846080937A00809116
:100A10007A00826080937A0080917A00816080936E
:100A20007A0080917A00806880937A001092C100E9
:100A300010923B0210923A02109239021092380240
:100A400010923702109236028DE991E090933D02A8
:100A500080933C0290912C02963108F047C02DEB18
:100A600030E030933702209336022BE931E03093A7
:100A70003902209338022CE231E030933B0220937C
:100A80003A022091680084E0983048F031E09E30CE
:100A900008F430E081E001C0880F3A95EAF7822B34
:100AA000809368002DE630E0983050F02BE630E07F
:100AB0009E3030F02CE630E0963110F030E020E04F
:100AC0003093340220933302292F30E0983008F01D
:100AD000C7C081E001C0880F9A95EAF7809335027C
:100AE00080913C0290913D020197F1F780913A028A
:100AF00090913B02892B49F1E0917801F0917901C5
:100B000022E0E032F20709F1309739F0A389B48985
:100B10009C918589809589238C9380913E028E7F5C
:100B200080933E02109277011092760180E292E06B
:100B30009093790180937801E0913302F09134022F
:100B4000808190913502892B8083E0919301F0910F
:100B5000940182E08083E0918F01F09190011082F6
:100B6000E0919101F09192018FEC808310929B01B2
:100B7000E0919701F091980186E08083E0919501E2
:100B8000F0919601808180618083E0919501F091E0
:100B90009601808188608083E0919501F0919601B3
:100BA000808180688083E0919501F0919601808139
:100BB0008F7D808362E082E00E94B60024E7822E6F
:100BC00020E0922EC0EBD0E00CE910E030E0A32E44
:100BD00030E0B32EF4018491FE01E490F801F4902A
:100BE000F1104BC064E371E080E292E00E94D30216
:100BF00064E271E080E292E00E94D30267E271E079
:100C000083E891E00E94D30264E271E083E891E01E
:100C10000E94D3020E94F2006B017C0194EF492EE6
:100C200055245394612C712C0E94F2006C197D099B
:100C30008E099F09683E734081059105A8F3F1E094
:100C40004F1A51086108710828EEC20E23E0D21E27
:100C5000E11CF11C411451046104710429F71CC00A
:100C60009E3040F42850310981E001C0880F2A9558
:100C7000EAF734CF2E503109F7CF81110E948D0051
:100C8000EF2DF0E0EE0FFF1FEA57FF4FA591B49153
:100C90008C91E82209F4A6CFA114B10409F49ACFEB
:100CA0000E948101882309F495CF0E94000092CF11
:100CB00086E191E090932102809320028091780157
:100CC000909179018052924071F4E0913302F09159
:100CD000340290818091350280958923808310921F
:100CE0007901109278010895EE0FFF1F0590F4919D
:100CF000E02D099410E0C2E6D0E004C0FE010E949D
:0E0D000074062196C336D107C9F7F894FFCFC9
:100D0E0000000000B70117014401040275015301F0
:100D1E006701000000003D021701D0023C0299025B
:100D2E00AF0224020D0A0047C3B66E646572696C89
:060D3E0064693A20420046
:00000001FF
