:100000000C9463000C948B000C948B000C94EB020A
:100010000C94EB020C94EB020C948B000C948B0070
:100020000C948B000C948B000C948B000C948B0024
:100030000C948B000C948B000C948B000C948B0014
:100040000C9449020C948B000C94B9020C9493020A
:100050000C948B000C948B000C948B000C948B00F4
:100060000C948B000C948B0000000008000201002F
:100070000003040700000000000000000000000072
:1000800023002600290000000000240027002A0089
:1000900000000000250028002B00040404040404D0
:1000A0000404020202020202030303030303010227
:1000B00004081020408001020408102001020408F6
:1000C0001020AF03E30511241FBECFEFD8E0DEBF41
:1000D000CDBF11E0A0E0B1E0E4E2FCE002C0059099
:1000E0000D92A834B107D9F722E0A8E4B1E001C02D
:1000F0001D92A135B207E1F710E0C2E6D0E004C0DE
:100100002197FE010E94FF05C136D107C9F70E9461
:1001100098040C9405060C940000AF92BF92CF9205
:10012000DF92EF92FF920F931F93CF93DF936C01B7
:100130007B018B01040F151FEB015E01AE18BF0898
:10014000C017D10759F06991D601ED91FC9101904A
:10015000F081E02DC6010995892B79F7C501DF9162
:10016000CF911F910F91FF90EF90DF90CF90BF90B4
:10017000AF900895FC01538D448D252F30E0842FDE
:1001800090E0821B930B541710F0CF9608950197BF
:100190000895FC01918D828D981761F0A28DAE0FAC
:1001A000BF2FB11D5D968C91928D9F5F9F73928F33
:1001B00090E008958FEF9FEF0895FC01918D828D5F
:1001C000981731F0828DE80FF11D858D90E008952C
:1001D0008FEF9FEF0895FC01918D228D892F90E084
:1001E000805C9F4F821B91098F739927089585E941
:1001F00091E00E94EB0021E0892B09F420E0822F9E
:10020000089580E090E0892B29F00E94F700811189
:100210000C9400000895FC01A48DA80FB92FB11D06
:10022000A35ABF4F2C91848D90E001968F7399272C
:10023000848FA689B7892C93A089B1898C9183700A
:1002400080648C93938D848D981306C00288F38903
:10025000E02D80818F7D80830895EF92FF920F9330
:100260001F93CF93DF93EC0181E0888F9B8D8C8D62
:1002700098131AC0E889F989808185FF15C09FB756
:10028000F894EE89FF896083E889F9898081837019
:10029000806480839FBF81E090E0DF91CF911F91C8
:1002A0000F91FF90EF900895F62E0B8D10E00F5FE9
:1002B0001F4F0F731127E02E8C8D8E110CC00FB6BF
:1002C00007FCFACFE889F989808185FFF5CFCE0157
:1002D0000E940B01F1CFEB8DEC0FFD2FF11DE35AC6
:1002E000FF4FF0829FB7F8940B8FEA89FB898081DA
:1002F0008062CFCFCF93DF93EC01888D8823B9F054
:10030000AA89BB89E889F9898C9185FD03C0808120
:1003100086FD0DC00FB607FCF7CF8C9185FFF2CF9D
:10032000808185FFEDCFCE010E940B01E9CFDF91E7
:10033000CF91089520918A0130918B0128173907B8
:1003400071F49091880180918901981741F0E091B2
:100350008801F0E0E85BFE4F808190E008958FEF28
:100360009FEF08950895EF92FF920F931F93CF93FD
:10037000DF93DC015C96ED90FC905D97E114F10455
:1003800079F481E090E013969C938E93129790E01D
:1003900080E0DF91CF911F910F91FF90EF90089532
:1003A0005196ED91FC91529750968C915097982FC1
:1003B00090950FB75E962C915E97122F127021FDCB
:1003C0006095F8942081112319F1282B2083E701EF
:1003D0002197F1F728E0462F50E0308160FF1AC0E6
:1003E000382B3083E7012197F1F7BA0175956795AE
:1003F000215089F7112381F08081892380830FBFE9
:100400005C968D919C910197F1F781E090E0C1CFCE
:100410002923DCCF3923E5CF9081892BEFCF2091A1
:100420008A0130918B012817390761F48091890185
:100430002091880190E0805C9F4F821B91098F730F
:100440009927089590E080E0089520918A013091E5
:100450008B0128173907B9F490918801809189019F
:10046000981789F0E0918801F0E0E85BFE4F808109
:100470002091880130E02F5F3F4F2F733327209367
:10048000880190E008958FEF9FEF089590E080E05D
:1004900008951F920F920FB60F9211242F933F933E
:1004A0008F939F93AF93BF9380919101909192010D
:1004B000A0919301B09194013091900123E0230F1A
:1004C0002D3758F50196A11DB11D20939001809301
:1004D000910190939201A0939301B0939401809124
:1004E0008C0190918D01A0918E01B0918F010196A8
:1004F000A11DB11D80938C0190938D01A0938E015D
:10050000B0938F01BF91AF919F918F913F912F91A8
:100510000F900FBE0F901F90189526E8230F02969C
:10052000A11DB11DD2CF1F920F920FB60F921124B1
:100530002F933F934F935F936F937F938F939F93EB
:10054000AF93BF93EF93FF9385E991E00E940B0176
:10055000FF91EF91BF91AF919F918F917F916F919B
:100560005F914F913F912F910F900FBE0F901F9071
:1005700018951F920F920FB60F9211242F938F93FD
:100580009F93EF93FF93E091A501F091A6018081E5
:10059000E091AB01F091AC0182FD1BC09081809194
:1005A000AE018F5F8F732091AF01821741F0E09110
:1005B000AE01F0E0EB56FE4F958F8093AE01FF91B8
:1005C000EF919F918F912F910F900FBE0F901F90E1
:1005D00018958081F4CF1F920F920FB60F921124BD
:1005E0002F933F934F935F936F937F938F939F933B
:1005F000AF93BF93EF93FF93E0918A01F0918B014A
:10060000309749F0A685B7858585968D91FF14C0F2
:100610009C918923A1F4FF91EF91BF91AF919F919C
:100620008F917F916F915F914F913F912F910F909B
:100630000FBE0F901F9018959C91892361F7A38995
:10064000B4899C918589809589238C938689978923
:100650000197F1F7608D718DA685B785558538E0D6
:1006600020E0CB010197F1F7822F90E095958795D7
:10067000282F4C91452309F02068315091F7868D41
:1006800081FD20958091890190E001968F739927D3
:1006900030918801381799F0A0918901B0E0A85BEA
:1006A000BE4F2C9380938901828D938D0197F1F732
:1006B000A389B4898C919589892B8C93ACCF868D35
:1006C0008160868FF1CF90E0FC01E859FF4F2491C3
:1006D000FC01E255FF4F3491FC01E656FF4FE491D7
:1006E000EE23C9F0222339F0233001F1A8F42130A0
:1006F00019F1223029F1F0E0EE0FFF1FE057FF4F14
:10070000A591B4918FB7F894EC91611126C0309502
:100710003E233C938FBF08952730A9F02830C9F0BD
:10072000243049F7809180008F7D03C08091800044
:100730008F7780938000DFCF84B58F7784BDDBCF48
:1007400084B58F7DFBCF8091B0008F778093B00010
:10075000D2CF8091B0008F7DF9CF3E2BDACF0F93AF
:100760001F93CF93DF93109298011092970188EE18
:1007700093E0A0E0B0E08093990190939A01A09358
:100780009B01B0939C0124E031E0309396012093CB
:10079000950125EC30E03093A2012093A10124ECD7
:1007A00030E03093A4012093A30120EC30E030939B
:1007B000A6012093A50121EC30E03093A8012093FD
:1007C000A70122EC30E03093AA012093A90126EC86
:1007D00030E03093AC012093AB011092AE01109247
:1007E000AF011092B0011092B10110923502109237
:1007F00034028093360290933702A0933802B0936C
:10080000390286E191E09093330280933202109294
:1008100049021092480210924B0210924A02109222
:100820004D0210924C0210924F0210924E026091B3
:1008300050026E7F6D7F609350026695617081E01B
:1008400068278BE00E94630349EB50E0FA01649152
:1008500085EA90E0FC012491222399F030E0220FF8
:10086000331FF901EA57FF4FA591B491F901E05701
:10087000FF4F259134912FB7F8943C91632B6C93E3
:100880002FBFFA01449140934202FC018491E82F6A
:10089000F0E0EE0FFF1FE057FF4F8591949190938A
:1008A00044028093430208EB10E0F8012491C4EA6B
:1008B000D0E0FE0184918823C9F090E0880F991F51
:1008C000FC01EA57FF4FA591B491FC01E057FF4F9F
:1008D000459154913FB7F8949C91822F809598232D
:1008E0009C93FA019081892380833FBF80915002BD
:1008F00081FD04C061E08AE00E9463038AE0809386
:100900003E02F801049100933F02FE01C491EC2FD6
:10091000F0E0EE0FFF1FE458FF4F85919491909304
:10092000410280934002DF91CF911F910F91089572
:10093000789484B5826084BD84B5816084BD85B5BA
:10094000826085BD85B5816085BD80916E008160C6
:1009500080936E001092810080918100826080936C
:10096000810080918100816080938100809180006E
:100970008160809380008091B10084608093B10099
:100980008091B00081608093B00080917A00846093
:1009900080937A0080917A00826080937A008091BF
:1009A0007A00816080937A0080917A0080688093D9
:1009B0007A001092C100E091A501F091A60182E0B9
:1009C0008083E091A101F091A2011082E091A30146
:1009D000F091A4018FEC80831092AD01E091A90108
:1009E000F091AA0186E08083E091A701F091A8012F
:1009F000808180618083E091A701F091A8018081CE
:100A000088608083E091A701F091A80180818068CF
:100A10008083E091A701F091A80180818F7D808380
:100A200010924D0210924C0210924B0210924A0208
:100A300010924902109248028DE991E090934F0282
:100A400080934E0290913E02963108F047C02DEB04
:100A500030E030934902209348022BE931E0309393
:100A60004B0220934A022CE231E030934D02209356
:100A70004C022091680084E0983048F031E09E30CC
:100A800008F430E081E001C0880F3A95EAF7822B44
:100A9000809368002DE630E0983050F02BE630E08F
:100AA0009E3030F02CE630E0963110F030E020E05F
:100AB0003093460220934502292F30E0983008F009
:100AC00075C081E001C0880F9A95EAF780934702CC
:100AD00080914E0290914F020197F1F780914C0264
:100AE00090914D02892B49F1E0918A01F0918B019F
:100AF00082E0E233F80709F1309739F0A389B4892D
:100B00009C918589809589238C93809150028E7F5A
:100B100080935002109289011092880182E392E042
:100B200090938B0180938A01E0914502F0914602F7
:100B3000808190914702892B80834FE150E064E2ED
:100B400071E085E991E00E948D0042E050E064E4AC
:100B500071E085E991E00E948D00C0E0D0E085E978
:100B600091E00E94EB00892B49F085E991E00E9419
:100B7000C900682F82E392E00E94B30182E392E011
:100B80000E940F02892B49F082E392E00E94250225
:100B9000682F85E991E00E942D01209701F30E94C2
:100BA000F7008823E1F20E940000D9CF9E3040F484
:100BB0002850310981E001C0880F2A95EAF786CFD5
:100BC0002E503109F7CF86E191E090933302809364
:100BD000320280918A0190918B018253924071F48C
:100BE000E0914502F0914602908180914702809504
:100BF0008923808310928B0110928A010895EE0F51
:100C0000FF1F0590F491E02D099410E0C2E6D0E0BA
:100C100004C0FE010E94FF052196C336D107C9F723
:040C2000F894FFCF76
:100C2400000000002D018D00BA007A01EB00C9001C
:100C3400DD0000000000B3018D004602B2010F0286
:100C440025029A0148432D3035204154204B6F6DC5
:100C54007574205465726D696E616C692048617A9F
:080C6400C4B172000D0A00008A
:00000001FF
